{
  "_format": "hh-sol-artifact-1",
  "contractName": "AssetTokenization",
  "sourceName": "contracts/AssetTokenization.sol",
  "abi": [
    {
      "inputs": [
        {
          "internalType": "address",
          "name": "farmer",
          "type": "address"
        }
      ],
      "name": "availableContract",
      "outputs": [
        {
          "internalType": "bool",
          "name": "",
          "type": "bool"
        }
      ],
      "stateMutability": "view",
      "type": "function"
    },
    {
      "inputs": [
        {
          "internalType": "address",
          "name": "farmerAddress",
          "type": "address"
        }
      ],
      "name": "buyNft",
      "outputs": [],
      "stateMutability": "payable",
      "type": "function"
    },
    {
      "inputs": [
        {
          "internalType": "bytes",
          "name": "",
          "type": "bytes"
        }
      ],
      "name": "checkUpkeep",
      "outputs": [
        {
          "internalType": "bool",
          "name": "upkeepNeeded",
          "type": "bool"
        },
        {
          "internalType": "bytes",
          "name": "",
          "type": "bytes"
        }
      ],
      "stateMutability": "view",
      "type": "function"
    },
    {
      "inputs": [
        {
          "internalType": "string",
          "name": "_farmerName",
          "type": "string"
        },
        {
          "internalType": "string",
          "name": "_description",
          "type": "string"
        },
        {
          "internalType": "uint256",
          "name": "_totalMint",
          "type": "uint256"
        },
        {
          "internalType": "uint256",
          "name": "_price",
          "type": "uint256"
        },
        {
          "internalType": "uint256",
          "name": "_expirationDate",
          "type": "uint256"
        }
      ],
      "name": "generateNftContract",
      "outputs": [],
      "stateMutability": "nonpayable",
      "type": "function"
    },
    {
      "inputs": [],
      "name": "getBuyers",
      "outputs": [
        {
          "internalType": "address[]",
          "name": "",
          "type": "address[]"
        }
      ],
      "stateMutability": "view",
      "type": "function"
    },
    {
      "inputs": [],
      "name": "getFarmers",
      "outputs": [
        {
          "internalType": "address[]",
          "name": "",
          "type": "address[]"
        }
      ],
      "stateMutability": "view",
      "type": "function"
    },
    {
      "inputs": [
        {
          "internalType": "address",
          "name": "farmerAddress",
          "type": "address"
        }
      ],
      "name": "getNftContractDetails",
      "outputs": [
        {
          "components": [
            {
              "internalType": "address",
              "name": "farmerAddress",
              "type": "address"
            },
            {
              "internalType": "string",
              "name": "farmerName",
              "type": "string"
            },
            {
              "internalType": "string",
              "name": "description",
              "type": "string"
            },
            {
              "internalType": "uint256",
              "name": "totalMint",
              "type": "uint256"
            },
            {
              "internalType": "uint256",
              "name": "availableMint",
              "type": "uint256"
            },
            {
              "internalType": "uint256",
              "name": "price",
              "type": "uint256"
            },
            {
              "internalType": "uint256",
              "name": "expirationDate",
              "type": "uint256"
            }
          ],
          "internalType": "struct AssetTokenization.nftContractDetails",
          "name": "",
          "type": "tuple"
        }
      ],
      "stateMutability": "view",
      "type": "function"
    },
    {
      "inputs": [
        {
          "internalType": "bytes",
          "name": "",
          "type": "bytes"
        }
      ],
      "name": "performUpkeep",
      "outputs": [],
      "stateMutability": "nonpayable",
      "type": "function"
    }
  ],
  "bytecode": "0x608060405234801561001057600080fd5b50615df1806100206000396000f3fe608060405260043610620000865760003560e01c8063789f8d401162000055578063789f8d40146200014c57806396b17536146200017c578063f64bfaba14620001c0578063fff1f74314620001f05762000086565b80634585e33b146200008b5780634c48d24814620000b9578063600b695614620000d95780636e04ff0d1462000107575b600080fd5b3480156200009857600080fd5b50620000b76004803603810190620000b1919062001337565b62000234565b005b620000d76004803603810190620000d19190620013f1565b620004b9565b005b348015620000e657600080fd5b50620001056004803603810190620000ff9190620015bb565b620005d8565b005b3480156200011457600080fd5b506200013360048036038101906200012d919062001337565b62000704565b6040516200014392919062001727565b60405180910390f35b3480156200015957600080fd5b5062000164620008d5565b60405162000173919062001829565b60405180910390f35b3480156200018957600080fd5b50620001a86004803603810190620001a29190620013f1565b62000965565b604051620001b791906200196c565b60405180910390f35b348015620001cd57600080fd5b50620001d862000fd4565b604051620001e7919062001829565b60405180910390f35b348015620001fd57600080fd5b506200021c6004803603810190620002169190620013f1565b620010b1565b6040516200022b919062001990565b60405180910390f35b60005b600080549050811015620004b45760008082815481106200025d576200025c620019ad565b5b9060005260206000200160009054906101000a900473ffffffffffffffffffffffffffffffffffffffff1690506200029581620010b1565b620002a157506200049e565b600160008273ffffffffffffffffffffffffffffffffffffffff1673ffffffffffffffffffffffffffffffffffffffff16815260200190815260200160002060009054906101000a900473ffffffffffffffffffffffffffffffffffffffff1673ffffffffffffffffffffffffffffffffffffffff16632f13b60c6040518163ffffffff1660e01b8152600401602060405180830381865afa1580156200034c573d6000803e3d6000fd5b505050506040513d601f19601f8201168201806040525081019062000372919062001a0d565b156200049c57600160008273ffffffffffffffffffffffffffffffffffffffff1673ffffffffffffffffffffffffffffffffffffffff16815260200190815260200160002060009054906101000a900473ffffffffffffffffffffffffffffffffffffffff1673ffffffffffffffffffffffffffffffffffffffff1663740ea8ab6040518163ffffffff1660e01b8152600401600060405180830381600087803b1580156200042057600080fd5b505af115801562000435573d6000803e3d6000fd5b50505050600160008273ffffffffffffffffffffffffffffffffffffffff1673ffffffffffffffffffffffffffffffffffffffff16815260200190815260200160002060006101000a81549073ffffffffffffffffffffffffffffffffffffffff02191690555b505b8080620004ab9062001a6e565b91505062000237565b505050565b620004c481620010b1565b62000506576040517f08c379a0000000000000000000000000000000000000000000000000000000008152600401620004fd9062001b1c565b60405180910390fd5b600160008273ffffffffffffffffffffffffffffffffffffffff1673ffffffffffffffffffffffffffffffffffffffff16815260200190815260200160002060009054906101000a900473ffffffffffffffffffffffffffffffffffffffff1673ffffffffffffffffffffffffffffffffffffffff166354ba0f2734336040518363ffffffff1660e01b8152600401620005a1919062001b4f565b6000604051808303818588803b158015620005bb57600080fd5b505af1158015620005d0573d6000803e3d6000fd5b505050505050565b60001515620005e733620010b1565b1515146200062c576040517f08c379a0000000000000000000000000000000000000000000000000000000008152600401620006239062001bbc565b60405180910390fd5b620006373362001149565b60003386868686866040516200064d9062001254565b6200065e9695949392919062001c30565b604051809103906000f0801580156200067b573d6000803e3d6000fd5b50905080600160003373ffffffffffffffffffffffffffffffffffffffff1673ffffffffffffffffffffffffffffffffffffffff16815260200190815260200160002060006101000a81548173ffffffffffffffffffffffffffffffffffffffff021916908373ffffffffffffffffffffffffffffffffffffffff160217905550505050505050565b6000606060005b600080549050811015620008b6576200076560008281548110620007345762000733620019ad565b5b9060005260206000200160009054906101000a900473ffffffffffffffffffffffffffffffffffffffff16620010b1565b15620008a05760016000808381548110620007855762000784620019ad565b5b9060005260206000200160009054906101000a900473ffffffffffffffffffffffffffffffffffffffff1673ffffffffffffffffffffffffffffffffffffffff1673ffffffffffffffffffffffffffffffffffffffff16815260200190815260200160002060009054906101000a900473ffffffffffffffffffffffffffffffffffffffff1673ffffffffffffffffffffffffffffffffffffffff16632f13b60c6040518163ffffffff1660e01b8152600401602060405180830381865afa15801562000856573d6000803e3d6000fd5b505050506040513d601f19601f820116820180604052508101906200087c919062001a0d565b156200089f576001604051806020016040528060008152509250925050620008ce565b5b8080620008ad9062001a6e565b9150506200070b565b50600060405180602001604052806000815250915091505b9250929050565b606060008054806020026020016040519081016040528092919081815260200182805480156200095b57602002820191906000526020600020905b8160009054906101000a900473ffffffffffffffffffffffffffffffffffffffff1673ffffffffffffffffffffffffffffffffffffffff168152602001906001019080831162000910575b5050505050905090565b6200096f62001262565b6200097a82620010b1565b620009bc576040517f08c379a0000000000000000000000000000000000000000000000000000000008152600401620009b39062001cfb565b60405180910390fd5b620009c662001262565b6040518060e00160405280600160008673ffffffffffffffffffffffffffffffffffffffff1673ffffffffffffffffffffffffffffffffffffffff16815260200190815260200160002060009054906101000a900473ffffffffffffffffffffffffffffffffffffffff1673ffffffffffffffffffffffffffffffffffffffff1663b7b58b7f6040518163ffffffff1660e01b8152600401602060405180830381865afa15801562000a7c573d6000803e3d6000fd5b505050506040513d601f19601f8201168201806040525081019062000aa2919062001d34565b73ffffffffffffffffffffffffffffffffffffffff168152602001600160008673ffffffffffffffffffffffffffffffffffffffff1673ffffffffffffffffffffffffffffffffffffffff16815260200190815260200160002060009054906101000a900473ffffffffffffffffffffffffffffffffffffffff1673ffffffffffffffffffffffffffffffffffffffff1663ca669a8c6040518163ffffffff1660e01b8152600401600060405180830381865afa15801562000b68573d6000803e3d6000fd5b505050506040513d6000823e3d601f19601f8201168201806040525081019062000b93919062001de4565b8152602001600160008673ffffffffffffffffffffffffffffffffffffffff1673ffffffffffffffffffffffffffffffffffffffff16815260200190815260200160002060009054906101000a900473ffffffffffffffffffffffffffffffffffffffff1673ffffffffffffffffffffffffffffffffffffffff16637284e4166040518163ffffffff1660e01b8152600401600060405180830381865afa15801562000c43573d6000803e3d6000fd5b505050506040513d6000823e3d601f19601f8201168201806040525081019062000c6e919062001de4565b8152602001600160008673ffffffffffffffffffffffffffffffffffffffff1673ffffffffffffffffffffffffffffffffffffffff16815260200190815260200160002060009054906101000a900473ffffffffffffffffffffffffffffffffffffffff1673ffffffffffffffffffffffffffffffffffffffff166359a7715a6040518163ffffffff1660e01b8152600401602060405180830381865afa15801562000d1e573d6000803e3d6000fd5b505050506040513d601f19601f8201168201806040525081019062000d44919062001e4c565b8152602001600160008673ffffffffffffffffffffffffffffffffffffffff1673ffffffffffffffffffffffffffffffffffffffff16815260200190815260200160002060009054906101000a900473ffffffffffffffffffffffffffffffffffffffff1673ffffffffffffffffffffffffffffffffffffffff1663b751cb3b6040518163ffffffff1660e01b8152600401602060405180830381865afa15801562000df4573d6000803e3d6000fd5b505050506040513d601f19601f8201168201806040525081019062000e1a919062001e4c565b8152602001600160008673ffffffffffffffffffffffffffffffffffffffff1673ffffffffffffffffffffffffffffffffffffffff16815260200190815260200160002060009054906101000a900473ffffffffffffffffffffffffffffffffffffffff1673ffffffffffffffffffffffffffffffffffffffff1663a035b1fe6040518163ffffffff1660e01b8152600401602060405180830381865afa15801562000eca573d6000803e3d6000fd5b505050506040513d601f19601f8201168201806040525081019062000ef0919062001e4c565b8152602001600160008673ffffffffffffffffffffffffffffffffffffffff1673ffffffffffffffffffffffffffffffffffffffff16815260200190815260200160002060009054906101000a900473ffffffffffffffffffffffffffffffffffffffff1673ffffffffffffffffffffffffffffffffffffffff16638f6204876040518163ffffffff1660e01b8152600401602060405180830381865afa15801562000fa0573d6000803e3d6000fd5b505050506040513d601f19601f8201168201806040525081019062000fc6919062001e4c565b815250905080915050919050565b6060600160003373ffffffffffffffffffffffffffffffffffffffff1673ffffffffffffffffffffffffffffffffffffffff16815260200190815260200160002060009054906101000a900473ffffffffffffffffffffffffffffffffffffffff1673ffffffffffffffffffffffffffffffffffffffff1663d1b02ba76040518163ffffffff1660e01b8152600401600060405180830381865afa15801562001081573d6000803e3d6000fd5b505050506040513d6000823e3d601f19601f82011682018060405250810190620010ac919062001f54565b905090565b60008073ffffffffffffffffffffffffffffffffffffffff16600160008473ffffffffffffffffffffffffffffffffffffffff1673ffffffffffffffffffffffffffffffffffffffff16815260200190815260200160002060009054906101000a900473ffffffffffffffffffffffffffffffffffffffff1673ffffffffffffffffffffffffffffffffffffffff1614159050919050565b60005b600080549050811015620011ec5760008181548110620011715762001170620019ad565b5b9060005260206000200160009054906101000a900473ffffffffffffffffffffffffffffffffffffffff1673ffffffffffffffffffffffffffffffffffffffff168273ffffffffffffffffffffffffffffffffffffffff1603620011d6575062001251565b8080620011e39062001a6e565b9150506200114c565b506000819080600181540180825580915050600190039060005260206000200160009091909190916101000a81548173ffffffffffffffffffffffffffffffffffffffff021916908373ffffffffffffffffffffffffffffffffffffffff1602179055505b50565b613e168062001fa683390190565b6040518060e00160405280600073ffffffffffffffffffffffffffffffffffffffff1681526020016060815260200160608152602001600081526020016000815260200160008152602001600081525090565b6000604051905090565b600080fd5b600080fd5b600080fd5b600080fd5b600080fd5b60008083601f840112620012f157620012f0620012c9565b5b8235905067ffffffffffffffff811115620013115762001310620012ce565b5b60208301915083600182028301111562001330576200132f620012d3565b5b9250929050565b60008060208385031215620013515762001350620012bf565b5b600083013567ffffffffffffffff811115620013725762001371620012c4565b5b6200138085828601620012d8565b92509250509250929050565b600073ffffffffffffffffffffffffffffffffffffffff82169050919050565b6000620013b9826200138c565b9050919050565b620013cb81620013ac565b8114620013d757600080fd5b50565b600081359050620013eb81620013c0565b92915050565b6000602082840312156200140a5762001409620012bf565b5b60006200141a84828501620013da565b91505092915050565b600080fd5b6000601f19601f8301169050919050565b7f4e487b7100000000000000000000000000000000000000000000000000000000600052604160045260246000fd5b620014738262001428565b810181811067ffffffffffffffff8211171562001495576200149462001439565b5b80604052505050565b6000620014aa620012b5565b9050620014b8828262001468565b919050565b600067ffffffffffffffff821115620014db57620014da62001439565b5b620014e68262001428565b9050602081019050919050565b82818337600083830152505050565b6000620015196200151384620014bd565b6200149e565b90508281526020810184848401111562001538576200153762001423565b5b62001545848285620014f3565b509392505050565b600082601f830112620015655762001564620012c9565b5b81356200157784826020860162001502565b91505092915050565b6000819050919050565b620015958162001580565b8114620015a157600080fd5b50565b600081359050620015b5816200158a565b92915050565b600080600080600060a08688031215620015da57620015d9620012bf565b5b600086013567ffffffffffffffff811115620015fb57620015fa620012c4565b5b62001609888289016200154d565b955050602086013567ffffffffffffffff8111156200162d576200162c620012c4565b5b6200163b888289016200154d565b94505060406200164e88828901620015a4565b93505060606200166188828901620015a4565b92505060806200167488828901620015a4565b9150509295509295909350565b60008115159050919050565b620016988162001681565b82525050565b600081519050919050565b600082825260208201905092915050565b60005b83811015620016da578082015181840152602081019050620016bd565b60008484015250505050565b6000620016f3826200169e565b620016ff8185620016a9565b935062001711818560208601620016ba565b6200171c8162001428565b840191505092915050565b60006040820190506200173e60008301856200168d565b8181036020830152620017528184620016e6565b90509392505050565b600081519050919050565b600082825260208201905092915050565b6000819050602082019050919050565b6200179281620013ac565b82525050565b6000620017a6838362001787565b60208301905092915050565b6000602082019050919050565b6000620017cc826200175b565b620017d8818562001766565b9350620017e58362001777565b8060005b838110156200181c57815162001800888262001798565b97506200180d83620017b2565b925050600181019050620017e9565b5085935050505092915050565b60006020820190508181036000830152620018458184620017bf565b905092915050565b600081519050919050565b600082825260208201905092915050565b600062001876826200184d565b62001882818562001858565b935062001894818560208601620016ba565b6200189f8162001428565b840191505092915050565b620018b58162001580565b82525050565b600060e083016000830151620018d5600086018262001787565b5060208301518482036020860152620018ef828262001869565b915050604083015184820360408601526200190b828262001869565b9150506060830151620019226060860182620018aa565b506080830151620019376080860182620018aa565b5060a08301516200194c60a0860182620018aa565b5060c08301516200196160c0860182620018aa565b508091505092915050565b60006020820190508181036000830152620019888184620018bb565b905092915050565b6000602082019050620019a760008301846200168d565b92915050565b7f4e487b7100000000000000000000000000000000000000000000000000000000600052603260045260246000fd5b620019e78162001681565b8114620019f357600080fd5b50565b60008151905062001a0781620019dc565b92915050565b60006020828403121562001a265762001a25620012bf565b5b600062001a3684828501620019f6565b91505092915050565b7f4e487b7100000000000000000000000000000000000000000000000000000000600052601160045260246000fd5b600062001a7b8262001580565b91507fffffffffffffffffffffffffffffffffffffffffffffffffffffffffffffffff820362001ab05762001aaf62001a3f565b5b600182019050919050565b600082825260208201905092915050565b7f4e6f7420796574206465706c6f79656400000000000000000000000000000000600082015250565b600062001b0460108362001abb565b915062001b118262001acc565b602082019050919050565b6000602082019050818103600083015262001b378162001af5565b9050919050565b62001b4981620013ac565b82525050565b600060208201905062001b66600083018462001b3e565b92915050565b7f596f757220746f6b656e20697320616c7265616479206465706c6f7965640000600082015250565b600062001ba4601e8362001abb565b915062001bb18262001b6c565b602082019050919050565b6000602082019050818103600083015262001bd78162001b95565b9050919050565b600062001beb826200184d565b62001bf7818562001abb565b935062001c09818560208601620016ba565b62001c148162001428565b840191505092915050565b62001c2a8162001580565b82525050565b600060c08201905062001c47600083018962001b3e565b818103602083015262001c5b818862001bde565b9050818103604083015262001c71818762001bde565b905062001c82606083018662001c1f565b62001c91608083018562001c1f565b62001ca060a083018462001c1f565b979650505050505050565b7f6e6f7420617661696c61626c6500000000000000000000000000000000000000600082015250565b600062001ce3600d8362001abb565b915062001cf08262001cab565b602082019050919050565b6000602082019050818103600083015262001d168162001cd4565b9050919050565b60008151905062001d2e81620013c0565b92915050565b60006020828403121562001d4d5762001d4c620012bf565b5b600062001d5d8482850162001d1d565b91505092915050565b600062001d7d62001d7784620014bd565b6200149e565b90508281526020810184848401111562001d9c5762001d9b62001423565b5b62001da9848285620016ba565b509392505050565b600082601f83011262001dc95762001dc8620012c9565b5b815162001ddb84826020860162001d66565b91505092915050565b60006020828403121562001dfd5762001dfc620012bf565b5b600082015167ffffffffffffffff81111562001e1e5762001e1d620012c4565b5b62001e2c8482850162001db1565b91505092915050565b60008151905062001e46816200158a565b92915050565b60006020828403121562001e655762001e64620012bf565b5b600062001e758482850162001e35565b91505092915050565b600067ffffffffffffffff82111562001e9c5762001e9b62001439565b5b602082029050602081019050919050565b600062001ec462001ebe8462001e7e565b6200149e565b9050808382526020820190506020840283018581111562001eea5762001ee9620012d3565b5b835b8181101562001f17578062001f02888262001d1d565b84526020840193505060208101905062001eec565b5050509392505050565b600082601f83011262001f395762001f38620012c9565b5b815162001f4b84826020860162001ead565b91505092915050565b60006020828403121562001f6d5762001f6c620012bf565b5b600082015167ffffffffffffffff81111562001f8e5762001f8d620012c4565b5b62001f9c8482850162001f21565b9150509291505056fe60806040523480156200001157600080fd5b5060405162003e1638038062003e16833981810160405281019062000037919062000389565b6040518060400160405280600881526020017f4661726d204e46540000000000000000000000000000000000000000000000008152506040518060400160405280600481526020017f4641524d000000000000000000000000000000000000000000000000000000008152508160009081620000b49190620006a4565b508060019081620000c69190620006a4565b50505085600660006101000a81548173ffffffffffffffffffffffffffffffffffffffff021916908373ffffffffffffffffffffffffffffffffffffffff16021790555084600790816200011b9190620006a4565b5083600890816200012d9190620006a4565b508260098190555082600a8190555081600b8190555080600c819055505050505050506200078b565b6000604051905090565b600080fd5b600080fd5b600073ffffffffffffffffffffffffffffffffffffffff82169050919050565b600062000197826200016a565b9050919050565b620001a9816200018a565b8114620001b557600080fd5b50565b600081519050620001c9816200019e565b92915050565b600080fd5b600080fd5b6000601f19601f8301169050919050565b7f4e487b7100000000000000000000000000000000000000000000000000000000600052604160045260246000fd5b6200022482620001d9565b810181811067ffffffffffffffff82111715620002465762000245620001ea565b5b80604052505050565b60006200025b62000156565b905062000269828262000219565b919050565b600067ffffffffffffffff8211156200028c576200028b620001ea565b5b6200029782620001d9565b9050602081019050919050565b60005b83811015620002c4578082015181840152602081019050620002a7565b60008484015250505050565b6000620002e7620002e1846200026e565b6200024f565b905082815260208101848484011115620003065762000305620001d4565b5b62000313848285620002a4565b509392505050565b600082601f830112620003335762000332620001cf565b5b815162000345848260208601620002d0565b91505092915050565b6000819050919050565b62000363816200034e565b81146200036f57600080fd5b50565b600081519050620003838162000358565b92915050565b60008060008060008060c08789031215620003a957620003a862000160565b5b6000620003b989828a01620001b8565b965050602087015167ffffffffffffffff811115620003dd57620003dc62000165565b5b620003eb89828a016200031b565b955050604087015167ffffffffffffffff8111156200040f576200040e62000165565b5b6200041d89828a016200031b565b94505060606200043089828a0162000372565b93505060806200044389828a0162000372565b92505060a06200045689828a0162000372565b9150509295509295509295565b600081519050919050565b7f4e487b7100000000000000000000000000000000000000000000000000000000600052602260045260246000fd5b60006002820490506001821680620004b657607f821691505b602082108103620004cc57620004cb6200046e565b5b50919050565b60008190508160005260206000209050919050565b60006020601f8301049050919050565b600082821b905092915050565b600060088302620005367fffffffffffffffffffffffffffffffffffffffffffffffffffffffffffffffff82620004f7565b620005428683620004f7565b95508019841693508086168417925050509392505050565b6000819050919050565b6000620005856200057f62000579846200034e565b6200055a565b6200034e565b9050919050565b6000819050919050565b620005a18362000564565b620005b9620005b0826200058c565b84845462000504565b825550505050565b600090565b620005d0620005c1565b620005dd81848462000596565b505050565b5b818110156200060557620005f9600082620005c6565b600181019050620005e3565b5050565b601f82111562000654576200061e81620004d2565b6200062984620004e7565b8101602085101562000639578190505b620006516200064885620004e7565b830182620005e2565b50505b505050565b600082821c905092915050565b6000620006796000198460080262000659565b1980831691505092915050565b600062000694838362000666565b9150826002028217905092915050565b620006af8262000463565b67ffffffffffffffff811115620006cb57620006ca620001ea565b5b620006d782546200049d565b620006e482828562000609565b600060209050601f8311600181146200071c576000841562000707578287015190505b62000713858262000686565b86555062000783565b601f1984166200072c86620004d2565b60005b8281101562000756578489015182556001820191506020850194506020810190506200072f565b8683101562000776578489015162000772601f89168262000666565b8355505b6001600288020188555050505b505050505050565b61367b806200079b6000396000f3fe60806040526004361061014b5760003560e01c8063740ea8ab116100b6578063b7b58b7f1161006f578063b7b58b7f14610473578063b88d4fde1461049e578063c87b56dd146104c7578063ca669a8c14610504578063d1b02ba71461052f578063e985e9c51461055a5761014b565b8063740ea8ab146103875780638f6204871461039e57806395d89b41146103c9578063a035b1fe146103f4578063a22cb4651461041f578063b751cb3b146104485761014b565b806342842e0e1161010857806342842e0e1461027257806354ba0f271461029b57806359a7715a146102b75780636352211e146102e257806370a082311461031f5780637284e4161461035c5761014b565b806301ffc9a71461015057806306fdde031461018d578063081812fc146101b8578063095ea7b3146101f557806323b872dd1461021e5780632f13b60c14610247575b600080fd5b34801561015c57600080fd5b50610177600480360381019061017291906120e0565b610597565b6040516101849190612128565b60405180910390f35b34801561019957600080fd5b506101a2610679565b6040516101af91906121d3565b60405180910390f35b3480156101c457600080fd5b506101df60048036038101906101da919061222b565b61070b565b6040516101ec9190612299565b60405180910390f35b34801561020157600080fd5b5061021c600480360381019061021791906122e0565b610751565b005b34801561022a57600080fd5b5061024560048036038101906102409190612320565b610868565b005b34801561025357600080fd5b5061025c6108c8565b6040516102699190612128565b60405180910390f35b34801561027e57600080fd5b5061029960048036038101906102949190612320565b6108e5565b005b6102b560048036038101906102b09190612373565b610905565b005b3480156102c357600080fd5b506102cc610ad6565b6040516102d991906123af565b60405180910390f35b3480156102ee57600080fd5b506103096004803603810190610304919061222b565b610adc565b6040516103169190612299565b60405180910390f35b34801561032b57600080fd5b5061034660048036038101906103419190612373565b610b8d565b60405161035391906123af565b60405180910390f35b34801561036857600080fd5b50610371610c44565b60405161037e91906121d3565b60405180910390f35b34801561039357600080fd5b5061039c610cd2565b005b3480156103aa57600080fd5b506103b3610d4c565b6040516103c091906123af565b60405180910390f35b3480156103d557600080fd5b506103de610d52565b6040516103eb91906121d3565b60405180910390f35b34801561040057600080fd5b50610409610de4565b60405161041691906123af565b60405180910390f35b34801561042b57600080fd5b50610446600480360381019061044191906123f6565b610dea565b005b34801561045457600080fd5b5061045d610e00565b60405161046a91906123af565b60405180910390f35b34801561047f57600080fd5b50610488610e06565b6040516104959190612299565b60405180910390f35b3480156104aa57600080fd5b506104c560048036038101906104c0919061256b565b610e2c565b005b3480156104d357600080fd5b506104ee60048036038101906104e9919061222b565b610e8e565b6040516104fb91906121d3565b60405180910390f35b34801561051057600080fd5b50610519610efe565b60405161052691906121d3565b60405180910390f35b34801561053b57600080fd5b50610544610f8c565b60405161055191906126ac565b60405180910390f35b34801561056657600080fd5b50610581600480360381019061057c91906126ce565b611069565b60405161058e9190612128565b60405180910390f35b60007f80ac58cd000000000000000000000000000000000000000000000000000000007bffffffffffffffffffffffffffffffffffffffffffffffffffffffff1916827bffffffffffffffffffffffffffffffffffffffffffffffffffffffff1916148061066257507f5b5e139f000000000000000000000000000000000000000000000000000000007bffffffffffffffffffffffffffffffffffffffffffffffffffffffff1916827bffffffffffffffffffffffffffffffffffffffffffffffffffffffff1916145b806106725750610671826110fd565b5b9050919050565b6060600080546106889061273d565b80601f01602080910402602001604051908101604052809291908181526020018280546106b49061273d565b80156107015780601f106106d657610100808354040283529160200191610701565b820191906000526020600020905b8154815290600101906020018083116106e457829003601f168201915b5050505050905090565b600061071682611167565b6004600083815260200190815260200160002060009054906101000a900473ffffffffffffffffffffffffffffffffffffffff169050919050565b600061075c82610adc565b90508073ffffffffffffffffffffffffffffffffffffffff168373ffffffffffffffffffffffffffffffffffffffff16036107cc576040517f08c379a00000000000000000000000000000000000000000000000000000000081526004016107c3906127e0565b60405180910390fd5b8073ffffffffffffffffffffffffffffffffffffffff166107eb6111b2565b73ffffffffffffffffffffffffffffffffffffffff16148061081a5750610819816108146111b2565b611069565b5b610859576040517f08c379a000000000000000000000000000000000000000000000000000000000815260040161085090612872565b60405180910390fd5b61086383836111ba565b505050565b6108796108736111b2565b82611273565b6108b8576040517f08c379a00000000000000000000000000000000000000000000000000000000081526004016108af90612904565b60405180910390fd5b6108c3838383611308565b505050565b600042600c5410156108dd57600190506108e2565b600090505b90565b61090083838360405180602001604052806000815250610e2c565b505050565b6000600a541161094a576040517f08c379a000000000000000000000000000000000000000000000000000000000815260040161094190612970565b60405180910390fd5b600015156109566108c8565b151514610998576040517f08c379a000000000000000000000000000000000000000000000000000000000815260040161098f906129dc565b60405180910390fd5b600b5434146109a657600080fd5b6000600660009054906101000a900473ffffffffffffffffffffffffffffffffffffffff1673ffffffffffffffffffffffffffffffffffffffff16346040516109ee90612a2d565b60006040518083038185875af1925050503d8060008114610a2b576040519150601f19603f3d011682016040523d82523d6000602084013e610a30565b606091505b5050905080610a74576040517f08c379a0000000000000000000000000000000000000000000000000000000008152600401610a6b90612a8e565b60405180910390fd5b6000610a80600d61156e565b9050610a8c838261157c565b610aaf6040518060600160405280602581526020016135e160259139828561159a565b610ab9600d611639565b600a6000815480929190610acc90612add565b9190505550505050565b60095481565b6000806002600084815260200190815260200160002060009054906101000a900473ffffffffffffffffffffffffffffffffffffffff169050600073ffffffffffffffffffffffffffffffffffffffff168173ffffffffffffffffffffffffffffffffffffffff1603610b84576040517f08c379a0000000000000000000000000000000000000000000000000000000008152600401610b7b90612b52565b60405180910390fd5b80915050919050565b60008073ffffffffffffffffffffffffffffffffffffffff168273ffffffffffffffffffffffffffffffffffffffff1603610bfd576040517f08c379a0000000000000000000000000000000000000000000000000000000008152600401610bf490612be4565b60405180910390fd5b600360008373ffffffffffffffffffffffffffffffffffffffff1673ffffffffffffffffffffffffffffffffffffffff168152602001908152602001600020549050919050565b60088054610c519061273d565b80601f0160208091040260200160405190810160405280929190818152602001828054610c7d9061273d565b8015610cca5780601f10610c9f57610100808354040283529160200191610cca565b820191906000526020600020905b815481529060010190602001808311610cad57829003601f168201915b505050505081565b610cda6108c8565b610d19576040517f08c379a0000000000000000000000000000000000000000000000000000000008152600401610d1090612c50565b60405180910390fd5b60005b610d26600d61156e565b811015610d4957610d368161164f565b8080610d4190612c70565b915050610d1c565b50565b600c5481565b606060018054610d619061273d565b80601f0160208091040260200160405190810160405280929190818152602001828054610d8d9061273d565b8015610dda5780601f10610daf57610100808354040283529160200191610dda565b820191906000526020600020905b815481529060010190602001808311610dbd57829003601f168201915b5050505050905090565b600b5481565b610dfc610df56111b2565b838361176c565b5050565b600a5481565b600660009054906101000a900473ffffffffffffffffffffffffffffffffffffffff1681565b610e3d610e376111b2565b83611273565b610e7c576040517f08c379a0000000000000000000000000000000000000000000000000000000008152600401610e7390612904565b60405180910390fd5b610e88848484846118d8565b50505050565b60606000610ece610e9d610679565b610ea685611934565b6008604051602001610eba93929190612f7a565b604051602081830303815290604052611a94565b9050600081604051602001610ee39190613039565b60405160208183030381529060405290508092505050919050565b60078054610f0b9061273d565b80601f0160208091040260200160405190810160405280929190818152602001828054610f379061273d565b8015610f845780601f10610f5957610100808354040283529160200191610f84565b820191906000526020600020905b815481529060010190602001808311610f6757829003601f168201915b505050505081565b60606000610f9a600d61156e565b67ffffffffffffffff811115610fb357610fb2612440565b5b604051908082528060200260200182016040528015610fe15781602001602082028036833780820191505090505b50905060005b610ff1600d61156e565b8110156110615761100181610adc565b8282815181106110145761101361305b565b5b602002602001019073ffffffffffffffffffffffffffffffffffffffff16908173ffffffffffffffffffffffffffffffffffffffff1681525050808061105990612c70565b915050610fe7565b508091505090565b6000600560008473ffffffffffffffffffffffffffffffffffffffff1673ffffffffffffffffffffffffffffffffffffffff16815260200190815260200160002060008373ffffffffffffffffffffffffffffffffffffffff1673ffffffffffffffffffffffffffffffffffffffff16815260200190815260200160002060009054906101000a900460ff16905092915050565b60007f01ffc9a7000000000000000000000000000000000000000000000000000000007bffffffffffffffffffffffffffffffffffffffffffffffffffffffff1916827bffffffffffffffffffffffffffffffffffffffffffffffffffffffff1916149050919050565b61117081611bf7565b6111af576040517f08c379a00000000000000000000000000000000000000000000000000000000081526004016111a690612b52565b60405180910390fd5b50565b600033905090565b816004600083815260200190815260200160002060006101000a81548173ffffffffffffffffffffffffffffffffffffffff021916908373ffffffffffffffffffffffffffffffffffffffff160217905550808273ffffffffffffffffffffffffffffffffffffffff1661122d83610adc565b73ffffffffffffffffffffffffffffffffffffffff167f8c5be1e5ebec7d5bd14f71427d1e84f3dd0314c0f7b2291e5b200ac8c7c3b92560405160405180910390a45050565b60008061127f83610adc565b90508073ffffffffffffffffffffffffffffffffffffffff168473ffffffffffffffffffffffffffffffffffffffff1614806112c157506112c08185611069565b5b806112ff57508373ffffffffffffffffffffffffffffffffffffffff166112e78461070b565b73ffffffffffffffffffffffffffffffffffffffff16145b91505092915050565b8273ffffffffffffffffffffffffffffffffffffffff1661132882610adc565b73ffffffffffffffffffffffffffffffffffffffff161461137e576040517f08c379a0000000000000000000000000000000000000000000000000000000008152600401611375906130fc565b60405180910390fd5b600073ffffffffffffffffffffffffffffffffffffffff168273ffffffffffffffffffffffffffffffffffffffff16036113ed576040517f08c379a00000000000000000000000000000000000000000000000000000000081526004016113e49061318e565b60405180910390fd5b6113f8838383611c63565b6114036000826111ba565b6001600360008573ffffffffffffffffffffffffffffffffffffffff1673ffffffffffffffffffffffffffffffffffffffff168152602001908152602001600020600082825461145391906131ae565b925050819055506001600360008473ffffffffffffffffffffffffffffffffffffffff1673ffffffffffffffffffffffffffffffffffffffff16815260200190815260200160002060008282546114aa91906131e2565b92505081905550816002600083815260200190815260200160002060006101000a81548173ffffffffffffffffffffffffffffffffffffffff021916908373ffffffffffffffffffffffffffffffffffffffff160217905550808273ffffffffffffffffffffffffffffffffffffffff168473ffffffffffffffffffffffffffffffffffffffff167fddf252ad1be2c89b69c2b068fc378daa952ba7f163c4a11628f55a4df523b3ef60405160405180910390a4611569838383611c68565b505050565b600081600001549050919050565b611596828260405180602001604052806000815250611c6d565b5050565b6116348383836040516024016115b293929190613216565b6040516020818303038152906040527f1c7ec448000000000000000000000000000000000000000000000000000000007bffffffffffffffffffffffffffffffffffffffffffffffffffffffff19166020820180517bffffffffffffffffffffffffffffffffffffffffffffffffffffffff8381831617835250505050611cc8565b505050565b6001816000016000828254019250508190555050565b600061165a82610adc565b905061166881600084611c63565b6116736000836111ba565b6001600360008373ffffffffffffffffffffffffffffffffffffffff1673ffffffffffffffffffffffffffffffffffffffff16815260200190815260200160002060008282546116c391906131ae565b925050819055506002600083815260200190815260200160002060006101000a81549073ffffffffffffffffffffffffffffffffffffffff021916905581600073ffffffffffffffffffffffffffffffffffffffff168273ffffffffffffffffffffffffffffffffffffffff167fddf252ad1be2c89b69c2b068fc378daa952ba7f163c4a11628f55a4df523b3ef60405160405180910390a461176881600084611c68565b5050565b8173ffffffffffffffffffffffffffffffffffffffff168373ffffffffffffffffffffffffffffffffffffffff16036117da576040517f08c379a00000000000000000000000000000000000000000000000000000000081526004016117d1906132a0565b60405180910390fd5b80600560008573ffffffffffffffffffffffffffffffffffffffff1673ffffffffffffffffffffffffffffffffffffffff16815260200190815260200160002060008473ffffffffffffffffffffffffffffffffffffffff1673ffffffffffffffffffffffffffffffffffffffff16815260200190815260200160002060006101000a81548160ff0219169083151502179055508173ffffffffffffffffffffffffffffffffffffffff168373ffffffffffffffffffffffffffffffffffffffff167f17307eab39ab6107e8899845ad3d59bd9653f200f220920489ca2b5937696c31836040516118cb9190612128565b60405180910390a3505050565b6118e3848484611308565b6118ef84848484611cf1565b61192e576040517f08c379a000000000000000000000000000000000000000000000000000000000815260040161192590613332565b60405180910390fd5b50505050565b60606000820361197b576040518060400160405280600181526020017f30000000000000000000000000000000000000000000000000000000000000008152509050611a8f565b600082905060005b600082146119ad57808061199690612c70565b915050600a826119a69190613381565b9150611983565b60008167ffffffffffffffff8111156119c9576119c8612440565b5b6040519080825280601f01601f1916602001820160405280156119fb5781602001600182028036833780820191505090505b5090505b60008514611a8857600182611a1491906131ae565b9150600a85611a2391906133b2565b6030611a2f91906131e2565b60f81b818381518110611a4557611a4461305b565b5b60200101907effffffffffffffffffffffffffffffffffffffffffffffffffffffffffffff1916908160001a905350600a85611a819190613381565b94506119ff565b8093505050505b919050565b60606000825103611ab657604051806020016040528060008152509050611bf2565b60006040518060600160405280604081526020016136066040913990506000600360028551611ae591906131e2565b611aef9190613381565b6004611afb91906133e3565b67ffffffffffffffff811115611b1457611b13612440565b5b6040519080825280601f01601f191660200182016040528015611b465781602001600182028036833780820191505090505b509050600182016020820185865187015b80821015611bb2576003820191508151603f8160121c168501518453600184019350603f81600c1c168501518453600184019350603f8160061c168501518453600184019350603f8116850151845360018401935050611b57565b5050600386510660018114611bce5760028114611be157611be9565b603d6001830353603d6002830353611be9565b603d60018303535b50505080925050505b919050565b60008073ffffffffffffffffffffffffffffffffffffffff166002600084815260200190815260200160002060009054906101000a900473ffffffffffffffffffffffffffffffffffffffff1673ffffffffffffffffffffffffffffffffffffffff1614159050919050565b505050565b505050565b611c778383611e78565b611c846000848484611cf1565b611cc3576040517f08c379a0000000000000000000000000000000000000000000000000000000008152600401611cba90613332565b60405180910390fd5b505050565b60008151905060006a636f6e736f6c652e6c6f679050602083016000808483855afa5050505050565b6000611d128473ffffffffffffffffffffffffffffffffffffffff16612051565b15611e6b578373ffffffffffffffffffffffffffffffffffffffff1663150b7a02611d3b6111b2565b8786866040518563ffffffff1660e01b8152600401611d5d949392919061347a565b6020604051808303816000875af1925050508015611d9957506040513d601f19601f82011682018060405250810190611d9691906134db565b60015b611e1b573d8060008114611dc9576040519150601f19603f3d011682016040523d82523d6000602084013e611dce565b606091505b506000815103611e13576040517f08c379a0000000000000000000000000000000000000000000000000000000008152600401611e0a90613332565b60405180910390fd5b805181602001fd5b63150b7a0260e01b7bffffffffffffffffffffffffffffffffffffffffffffffffffffffff1916817bffffffffffffffffffffffffffffffffffffffffffffffffffffffff191614915050611e70565b600190505b949350505050565b600073ffffffffffffffffffffffffffffffffffffffff168273ffffffffffffffffffffffffffffffffffffffff1603611ee7576040517f08c379a0000000000000000000000000000000000000000000000000000000008152600401611ede90613554565b60405180910390fd5b611ef081611bf7565b15611f30576040517f08c379a0000000000000000000000000000000000000000000000000000000008152600401611f27906135c0565b60405180910390fd5b611f3c60008383611c63565b6001600360008473ffffffffffffffffffffffffffffffffffffffff1673ffffffffffffffffffffffffffffffffffffffff1681526020019081526020016000206000828254611f8c91906131e2565b92505081905550816002600083815260200190815260200160002060006101000a81548173ffffffffffffffffffffffffffffffffffffffff021916908373ffffffffffffffffffffffffffffffffffffffff160217905550808273ffffffffffffffffffffffffffffffffffffffff16600073ffffffffffffffffffffffffffffffffffffffff167fddf252ad1be2c89b69c2b068fc378daa952ba7f163c4a11628f55a4df523b3ef60405160405180910390a461204d60008383611c68565b5050565b6000808273ffffffffffffffffffffffffffffffffffffffff163b119050919050565b6000604051905090565b600080fd5b600080fd5b60007fffffffff0000000000000000000000000000000000000000000000000000000082169050919050565b6120bd81612088565b81146120c857600080fd5b50565b6000813590506120da816120b4565b92915050565b6000602082840312156120f6576120f561207e565b5b6000612104848285016120cb565b91505092915050565b60008115159050919050565b6121228161210d565b82525050565b600060208201905061213d6000830184612119565b92915050565b600081519050919050565b600082825260208201905092915050565b60005b8381101561217d578082015181840152602081019050612162565b60008484015250505050565b6000601f19601f8301169050919050565b60006121a582612143565b6121af818561214e565b93506121bf81856020860161215f565b6121c881612189565b840191505092915050565b600060208201905081810360008301526121ed818461219a565b905092915050565b6000819050919050565b612208816121f5565b811461221357600080fd5b50565b600081359050612225816121ff565b92915050565b6000602082840312156122415761224061207e565b5b600061224f84828501612216565b91505092915050565b600073ffffffffffffffffffffffffffffffffffffffff82169050919050565b600061228382612258565b9050919050565b61229381612278565b82525050565b60006020820190506122ae600083018461228a565b92915050565b6122bd81612278565b81146122c857600080fd5b50565b6000813590506122da816122b4565b92915050565b600080604083850312156122f7576122f661207e565b5b6000612305858286016122cb565b925050602061231685828601612216565b9150509250929050565b6000806000606084860312156123395761233861207e565b5b6000612347868287016122cb565b9350506020612358868287016122cb565b925050604061236986828701612216565b9150509250925092565b6000602082840312156123895761238861207e565b5b6000612397848285016122cb565b91505092915050565b6123a9816121f5565b82525050565b60006020820190506123c460008301846123a0565b92915050565b6123d38161210d565b81146123de57600080fd5b50565b6000813590506123f0816123ca565b92915050565b6000806040838503121561240d5761240c61207e565b5b600061241b858286016122cb565b925050602061242c858286016123e1565b9150509250929050565b600080fd5b600080fd5b7f4e487b7100000000000000000000000000000000000000000000000000000000600052604160045260246000fd5b61247882612189565b810181811067ffffffffffffffff8211171561249757612496612440565b5b80604052505050565b60006124aa612074565b90506124b6828261246f565b919050565b600067ffffffffffffffff8211156124d6576124d5612440565b5b6124df82612189565b9050602081019050919050565b82818337600083830152505050565b600061250e612509846124bb565b6124a0565b90508281526020810184848401111561252a5761252961243b565b5b6125358482856124ec565b509392505050565b600082601f83011261255257612551612436565b5b81356125628482602086016124fb565b91505092915050565b600080600080608085870312156125855761258461207e565b5b6000612593878288016122cb565b94505060206125a4878288016122cb565b93505060406125b587828801612216565b925050606085013567ffffffffffffffff8111156125d6576125d5612083565b5b6125e28782880161253d565b91505092959194509250565b600081519050919050565b600082825260208201905092915050565b6000819050602082019050919050565b61262381612278565b82525050565b6000612635838361261a565b60208301905092915050565b6000602082019050919050565b6000612659826125ee565b61266381856125f9565b935061266e8361260a565b8060005b8381101561269f5781516126868882612629565b975061269183612641565b925050600181019050612672565b5085935050505092915050565b600060208201905081810360008301526126c6818461264e565b905092915050565b600080604083850312156126e5576126e461207e565b5b60006126f3858286016122cb565b9250506020612704858286016122cb565b9150509250929050565b7f4e487b7100000000000000000000000000000000000000000000000000000000600052602260045260246000fd5b6000600282049050600182168061275557607f821691505b6020821081036127685761276761270e565b5b50919050565b7f4552433732313a20617070726f76616c20746f2063757272656e74206f776e6560008201527f7200000000000000000000000000000000000000000000000000000000000000602082015250565b60006127ca60218361214e565b91506127d58261276e565b604082019050919050565b600060208201905081810360008301526127f9816127bd565b9050919050565b7f4552433732313a20617070726f76652063616c6c6572206973206e6f7420746f60008201527f6b656e206f776e6572206e6f7220617070726f76656420666f7220616c6c0000602082015250565b600061285c603e8361214e565b915061286782612800565b604082019050919050565b6000602082019050818103600083015261288b8161284f565b9050919050565b7f4552433732313a2063616c6c6572206973206e6f7420746f6b656e206f776e6560008201527f72206e6f7220617070726f766564000000000000000000000000000000000000602082015250565b60006128ee602e8361214e565b91506128f982612892565b604082019050919050565b6000602082019050818103600083015261291d816128e1565b9050919050565b7f4e6f7420656e6f756768206e6674000000000000000000000000000000000000600082015250565b600061295a600e8361214e565b915061296582612924565b602082019050919050565b600060208201905081810360008301526129898161294d565b9050919050565b7f416c726561647920657870697265640000000000000000000000000000000000600082015250565b60006129c6600f8361214e565b91506129d182612990565b602082019050919050565b600060208201905081810360008301526129f5816129b9565b9050919050565b600081905092915050565b50565b6000612a176000836129fc565b9150612a2282612a07565b600082019050919050565b6000612a3882612a0a565b9150819050919050565b7f4661696c656420746f2077697468647261772041564158000000000000000000600082015250565b6000612a7860178361214e565b9150612a8382612a42565b602082019050919050565b60006020820190508181036000830152612aa781612a6b565b9050919050565b7f4e487b7100000000000000000000000000000000000000000000000000000000600052601160045260246000fd5b6000612ae8826121f5565b915060008203612afb57612afa612aae565b5b600182039050919050565b7f4552433732313a20696e76616c696420746f6b656e2049440000000000000000600082015250565b6000612b3c60188361214e565b9150612b4782612b06565b602082019050919050565b60006020820190508181036000830152612b6b81612b2f565b9050919050565b7f4552433732313a2061646472657373207a65726f206973206e6f74206120766160008201527f6c6964206f776e65720000000000000000000000000000000000000000000000602082015250565b6000612bce60298361214e565b9150612bd982612b72565b604082019050919050565b60006020820190508181036000830152612bfd81612bc1565b9050919050565b7f7374696c6c20617661696c61626c650000000000000000000000000000000000600082015250565b6000612c3a600f8361214e565b9150612c4582612c04565b602082019050919050565b60006020820190508181036000830152612c6981612c2d565b9050919050565b6000612c7b826121f5565b91507fffffffffffffffffffffffffffffffffffffffffffffffffffffffffffffffff8203612cad57612cac612aae565b5b600182019050919050565b600081905092915050565b7f7b226e616d65223a202200000000000000000000000000000000000000000000600082015250565b6000612cf9600a83612cb8565b9150612d0482612cc3565b600a82019050919050565b6000612d1a82612143565b612d248185612cb8565b9350612d3481856020860161215f565b80840191505092915050565b7f202d2d204e465420233a20000000000000000000000000000000000000000000600082015250565b6000612d76600b83612cb8565b9150612d8182612d40565b600b82019050919050565b7f222c20226465736372697074696f6e223a202200000000000000000000000000600082015250565b6000612dc2601383612cb8565b9150612dcd82612d8c565b601382019050919050565b60008190508160005260206000209050919050565b60008154612dfa8161273d565b612e048186612cb8565b94506001821660008114612e1f5760018114612e3457612e67565b60ff1983168652811515820286019350612e67565b612e3d85612dd8565b60005b83811015612e5f57815481890152600182019150602081019050612e40565b838801955050505b50505092915050565b7f222c2022696d616765223a2022697066733a2f2f000000000000000000000000600082015250565b6000612ea6601483612cb8565b9150612eb182612e70565b601482019050919050565b7f6261667962656963613578766e6a6678766e726a377272686c6532766b66733460008201527f70746e6e63326766656778707463326c73687661773379617a636d0000000000602082015250565b6000612f18603b83612cb8565b9150612f2382612ebc565b603b82019050919050565b7f227d000000000000000000000000000000000000000000000000000000000000600082015250565b6000612f64600283612cb8565b9150612f6f82612f2e565b600282019050919050565b6000612f8582612cec565b9150612f918286612d0f565b9150612f9c82612d69565b9150612fa88285612d0f565b9150612fb382612db5565b9150612fbf8284612ded565b9150612fca82612e99565b9150612fd582612f0b565b9150612fe082612f57565b9150819050949350505050565b7f646174613a6170706c69636174696f6e2f6a736f6e3b6261736536342c000000600082015250565b6000613023601d83612cb8565b915061302e82612fed565b601d82019050919050565b600061304482613016565b91506130508284612d0f565b915081905092915050565b7f4e487b7100000000000000000000000000000000000000000000000000000000600052603260045260246000fd5b7f4552433732313a207472616e736665722066726f6d20696e636f72726563742060008201527f6f776e6572000000000000000000000000000000000000000000000000000000602082015250565b60006130e660258361214e565b91506130f18261308a565b604082019050919050565b60006020820190508181036000830152613115816130d9565b9050919050565b7f4552433732313a207472616e7366657220746f20746865207a65726f2061646460008201527f7265737300000000000000000000000000000000000000000000000000000000602082015250565b600061317860248361214e565b91506131838261311c565b604082019050919050565b600060208201905081810360008301526131a78161316b565b9050919050565b60006131b9826121f5565b91506131c4836121f5565b92508282039050818111156131dc576131db612aae565b5b92915050565b60006131ed826121f5565b91506131f8836121f5565b92508282019050808211156132105761320f612aae565b5b92915050565b60006060820190508181036000830152613230818661219a565b905061323f60208301856123a0565b61324c604083018461228a565b949350505050565b7f4552433732313a20617070726f766520746f2063616c6c657200000000000000600082015250565b600061328a60198361214e565b915061329582613254565b602082019050919050565b600060208201905081810360008301526132b98161327d565b9050919050565b7f4552433732313a207472616e7366657220746f206e6f6e20455243373231526560008201527f63656976657220696d706c656d656e7465720000000000000000000000000000602082015250565b600061331c60328361214e565b9150613327826132c0565b604082019050919050565b6000602082019050818103600083015261334b8161330f565b9050919050565b7f4e487b7100000000000000000000000000000000000000000000000000000000600052601260045260246000fd5b600061338c826121f5565b9150613397836121f5565b9250826133a7576133a6613352565b5b828204905092915050565b60006133bd826121f5565b91506133c8836121f5565b9250826133d8576133d7613352565b5b828206905092915050565b60006133ee826121f5565b91506133f9836121f5565b9250828202613407816121f5565b9150828204841483151761341e5761341d612aae565b5b5092915050565b600081519050919050565b600082825260208201905092915050565b600061344c82613425565b6134568185613430565b935061346681856020860161215f565b61346f81612189565b840191505092915050565b600060808201905061348f600083018761228a565b61349c602083018661228a565b6134a960408301856123a0565b81810360608301526134bb8184613441565b905095945050505050565b6000815190506134d5816120b4565b92915050565b6000602082840312156134f1576134f061207e565b5b60006134ff848285016134c6565b91505092915050565b7f4552433732313a206d696e7420746f20746865207a65726f2061646472657373600082015250565b600061353e60208361214e565b915061354982613508565b602082019050919050565b6000602082019050818103600083015261356d81613531565b9050919050565b7f4552433732313a20746f6b656e20616c7265616479206d696e74656400000000600082015250565b60006135aa601c8361214e565b91506135b582613574565b602082019050919050565b600060208201905081810360008301526135d98161359d565b905091905056fe416e204e465420772f20494420257320686173206265656e206d696e74656420746f2025734142434445464748494a4b4c4d4e4f505152535455565758595a6162636465666768696a6b6c6d6e6f707172737475767778797a303132333435363738392b2fa2646970667358221220d8643f7718f21c360aaa913007bee7baadee41f53cce56468de734d7be2b6fd564736f6c63430008110033a2646970667358221220172db4a1bdcc0ca4a9af7196d70bf7a1714e190a36baef7d995acea64e2a6e5564736f6c63430008110033",
  "linkReferences": {},
  "deployedLinkReferences": {}
}