{
  "_format": "hh-sol-artifact-1",
  "contractName": "Lending",
  "sourceName": "contracts/Lending.sol",
  "abi": [
    {
      "inputs": [
        {
          "internalType": "address",
          "name": "matic",
          "type": "address"
        },
        {
          "internalType": "address",
          "name": "avax",
          "type": "address"
        }
      ],
      "stateMutability": "nonpayable",
      "type": "constructor"
    },
    {
      "anonymous": false,
      "inputs": [
        {
          "indexed": false,
          "internalType": "address",
          "name": "loan",
          "type": "address"
        }
      ],
      "name": "LoanRequestAccepted",
      "type": "event"
    },
    {
      "inputs": [],
      "name": "INTEREST_RATES",
      "outputs": [
        {
          "internalType": "uint256",
          "name": "",
          "type": "uint256"
        }
      ],
      "stateMutability": "view",
      "type": "function"
    },
    {
      "inputs": [],
      "name": "LOAN_DURATION",
      "outputs": [
        {
          "internalType": "uint256",
          "name": "",
          "type": "uint256"
        }
      ],
      "stateMutability": "view",
      "type": "function"
    },
    {
      "inputs": [],
      "name": "borrower",
      "outputs": [
        {
          "internalType": "address payable",
          "name": "",
          "type": "address"
        }
      ],
      "stateMutability": "view",
      "type": "function"
    },
    {
      "inputs": [],
      "name": "collateralAmount",
      "outputs": [
        {
          "internalType": "uint256",
          "name": "",
          "type": "uint256"
        }
      ],
      "stateMutability": "view",
      "type": "function"
    },
    {
      "inputs": [],
      "name": "collateralToken",
      "outputs": [
        {
          "internalType": "contract IERC20",
          "name": "",
          "type": "address"
        }
      ],
      "stateMutability": "view",
      "type": "function"
    },
    {
      "inputs": [
        {
          "internalType": "address",
          "name": "token",
          "type": "address"
        }
      ],
      "name": "getLatestPrice",
      "outputs": [
        {
          "internalType": "int256",
          "name": "",
          "type": "int256"
        }
      ],
      "stateMutability": "view",
      "type": "function"
    },
    {
      "inputs": [],
      "name": "lend",
      "outputs": [],
      "stateMutability": "payable",
      "type": "function"
    },
    {
      "inputs": [],
      "name": "loan",
      "outputs": [
        {
          "internalType": "contract Loan",
          "name": "",
          "type": "address"
        }
      ],
      "stateMutability": "view",
      "type": "function"
    },
    {
      "inputs": [],
      "name": "loanAmount",
      "outputs": [
        {
          "internalType": "uint256",
          "name": "",
          "type": "uint256"
        }
      ],
      "stateMutability": "view",
      "type": "function"
    },
    {
      "inputs": [],
      "name": "loanToken",
      "outputs": [
        {
          "internalType": "contract IERC20",
          "name": "",
          "type": "address"
        }
      ],
      "stateMutability": "view",
      "type": "function"
    },
    {
      "inputs": [
        {
          "internalType": "contract IERC20",
          "name": "_collateralToken",
          "type": "address"
        },
        {
          "internalType": "uint256",
          "name": "_collateralAmount",
          "type": "uint256"
        },
        {
          "internalType": "contract IERC20",
          "name": "_loanToken",
          "type": "address"
        },
        {
          "internalType": "uint256",
          "name": "_loanAmount",
          "type": "uint256"
        }
      ],
      "name": "makeLoanRequest",
      "outputs": [],
      "stateMutability": "payable",
      "type": "function"
    }
  ],
  "bytecode": "0x60806040523480156200001157600080fd5b5060405162002281380380620022818339818101604052810190620000379190620001cd565b73b0924e98cafc880ed81f6a4ca63fd61006d1f8a0600660008473ffffffffffffffffffffffffffffffffffffffff1673ffffffffffffffffffffffffffffffffffffffff16815260200190815260200160002060006101000a81548173ffffffffffffffffffffffffffffffffffffffff021916908373ffffffffffffffffffffffffffffffffffffffff160217905550735498bb86bc934c8d34fda08e81d444153d0d06ad600660008373ffffffffffffffffffffffffffffffffffffffff1673ffffffffffffffffffffffffffffffffffffffff16815260200190815260200160002060006101000a81548173ffffffffffffffffffffffffffffffffffffffff021916908373ffffffffffffffffffffffffffffffffffffffff160217905550505062000214565b600080fd5b600073ffffffffffffffffffffffffffffffffffffffff82169050919050565b6000620001958262000168565b9050919050565b620001a78162000188565b8114620001b357600080fd5b50565b600081519050620001c7816200019c565b92915050565b60008060408385031215620001e757620001e662000163565b5b6000620001f785828601620001b6565b92505060206200020a85828601620001b6565b9150509250929050565b61205d80620002246000396000f3fe608060405260043610620000aa5760003560e01c806397dffc61116200006d57806397dffc6114620001a35780639d585f7f14620001af578063b2016bd414620001df578063b928f922146200020f578063d285b7b4146200023f578063e02a4dfd146200026f57620000aa565b806306d3781714620000af57806316345f1814620000df5780631701efdc14620001235780637df1f1b9146200014357806392d09ceb1462000173575b600080fd5b348015620000bc57600080fd5b50620000c76200029f565b604051620000d6919062000c20565b60405180910390f35b348015620000ec57600080fd5b506200010b600480360381019062000105919062000c87565b620002c5565b6040516200011a919062000cd4565b60405180910390f35b6200014160048036038101906200013b919062000d71565b620003ae565b005b3480156200015057600080fd5b506200015b62000585565b6040516200016a919062000e08565b60405180910390f35b3480156200018057600080fd5b506200018b620005a9565b6040516200019a919062000e36565b60405180910390f35b620001ad620005af565b005b348015620001bc57600080fd5b50620001c762000a60565b604051620001d6919062000e36565b60405180910390f35b348015620001ec57600080fd5b50620001f762000a66565b60405162000206919062000c20565b60405180910390f35b3480156200021c57600080fd5b506200022762000a8c565b60405162000236919062000e36565b60405180910390f35b3480156200024c57600080fd5b506200025762000a91565b60405162000266919062000e78565b60405180910390f35b3480156200027c57600080fd5b506200028762000ab7565b60405162000296919062000e36565b60405180910390f35b600360009054906101000a900473ffffffffffffffffffffffffffffffffffffffff1681565b600080600660008473ffffffffffffffffffffffffffffffffffffffff1673ffffffffffffffffffffffffffffffffffffffff16815260200190815260200160002060009054906101000a900473ffffffffffffffffffffffffffffffffffffffff16905060008173ffffffffffffffffffffffffffffffffffffffff1663feaf968c6040518163ffffffff1660e01b815260040160a060405180830381865afa15801562000378573d6000803e3d6000fd5b505050506040513d601f19601f820116820180604052508101906200039e919062000f24565b5050509150508092505050919050565b600083620003bc86620002c5565b620003c8919062000fdb565b9050600082620003d885620002c5565b620003e4919062000fdb565b905062000427826040518060400160405280601281526020017f3a20636f6c6c61746572616c2076616c7565000000000000000000000000000081525062000abe565b62000468816040518060400160405280600c81526020017f3a206c6f616e2076616c7565000000000000000000000000000000000000000081525062000abe565b808211620004ad576040517f08c379a0000000000000000000000000000000000000000000000000000000008152600401620004a49062001087565b60405180910390fd5b336000806101000a81548173ffffffffffffffffffffffffffffffffffffffff021916908373ffffffffffffffffffffffffffffffffffffffff16021790555085600160006101000a81548173ffffffffffffffffffffffffffffffffffffffff021916908373ffffffffffffffffffffffffffffffffffffffff1602179055508460028190555083600360006101000a81548173ffffffffffffffffffffffffffffffffffffffff021916908373ffffffffffffffffffffffffffffffffffffffff16021790555082600481905550505050505050565b60008054906101000a900473ffffffffffffffffffffffffffffffffffffffff1681565b60025481565b600073ffffffffffffffffffffffffffffffffffffffff1660008054906101000a900473ffffffffffffffffffffffffffffffffffffffff1673ffffffffffffffffffffffffffffffffffffffff160362000641576040517f08c379a00000000000000000000000000000000000000000000000000000000081526004016200063890620010f9565b60405180910390fd5b60006002541180156200065657506000600454115b62000698576040517f08c379a00000000000000000000000000000000000000000000000000000000081526004016200068f906200116b565b60405180910390fd5b60006064806014620006ab91906200118d565b600454620006ba919062000fdb565b620006c69190620011f7565b90503360008054906101000a900473ffffffffffffffffffffffffffffffffffffffff16600160009054906101000a900473ffffffffffffffffffffffffffffffffffffffff16600254600360009054906101000a900473ffffffffffffffffffffffffffffffffffffffff168562093a80604051620007469062000b87565b6200075897969594939291906200122f565b604051809103906000f08015801562000775573d6000803e3d6000fd5b50600560006101000a81548173ffffffffffffffffffffffffffffffffffffffff021916908373ffffffffffffffffffffffffffffffffffffffff160217905550620007f96004546040518060400160405280600c81526020017f3a206c6f616e416d6f756e74000000000000000000000000000000000000000081525062000abe565b6200083a816040518060400160405280600e81526020017f3a207061796f6666416d6f756e7400000000000000000000000000000000000081525062000abe565b600160009054906101000a900473ffffffffffffffffffffffffffffffffffffffff1673ffffffffffffffffffffffffffffffffffffffff166323b872dd60008054906101000a900473ffffffffffffffffffffffffffffffffffffffff16600560009054906101000a900473ffffffffffffffffffffffffffffffffffffffff166002546040518463ffffffff1660e01b8152600401620008df93929190620012e2565b6020604051808303816000875af1158015620008ff573d6000803e3d6000fd5b505050506040513d601f19601f820116820180604052508101906200092591906200135c565b6200092f57600080fd5b600360009054906101000a900473ffffffffffffffffffffffffffffffffffffffff1673ffffffffffffffffffffffffffffffffffffffff166323b872dd3360008054906101000a900473ffffffffffffffffffffffffffffffffffffffff166004546040518463ffffffff1660e01b8152600401620009b2939291906200138e565b6020604051808303816000875af1158015620009d2573d6000803e3d6000fd5b505050506040513d601f19601f82011682018060405250810190620009f891906200135c565b62000a0257600080fd5b7f9f677f64e89085ceeb9764ab56960049bf27d6c283ce7a1fd757cac5648bb919600560009054906101000a900473ffffffffffffffffffffffffffffffffffffffff1660405162000a559190620013cb565b60405180910390a150565b60045481565b600160009054906101000a900473ffffffffffffffffffffffffffffffffffffffff1681565b601481565b600560009054906101000a900473ffffffffffffffffffffffffffffffffffffffff1681565b62093a8081565b62000b5a828260405160240162000ad792919062001471565b6040516020818303038152906040527f643fd0df000000000000000000000000000000000000000000000000000000007bffffffffffffffffffffffffffffffffffffffffffffffffffffffff19166020820180517bffffffffffffffffffffffffffffffffffffffffffffffffffffffff838183161783525050505062000b5e565b5050565b60008151905060006a636f6e736f6c652e6c6f679050602083016000808483855afa5050505050565b610b8280620014a683390190565b600073ffffffffffffffffffffffffffffffffffffffff82169050919050565b6000819050919050565b600062000be062000bda62000bd48462000b95565b62000bb5565b62000b95565b9050919050565b600062000bf48262000bbf565b9050919050565b600062000c088262000be7565b9050919050565b62000c1a8162000bfb565b82525050565b600060208201905062000c37600083018462000c0f565b92915050565b600080fd5b600062000c4f8262000b95565b9050919050565b62000c618162000c42565b811462000c6d57600080fd5b50565b60008135905062000c818162000c56565b92915050565b60006020828403121562000ca05762000c9f62000c3d565b5b600062000cb08482850162000c70565b91505092915050565b6000819050919050565b62000cce8162000cb9565b82525050565b600060208201905062000ceb600083018462000cc3565b92915050565b600062000cfe8262000c42565b9050919050565b62000d108162000cf1565b811462000d1c57600080fd5b50565b60008135905062000d308162000d05565b92915050565b6000819050919050565b62000d4b8162000d36565b811462000d5757600080fd5b50565b60008135905062000d6b8162000d40565b92915050565b6000806000806080858703121562000d8e5762000d8d62000c3d565b5b600062000d9e8782880162000d1f565b945050602062000db18782880162000d5a565b935050604062000dc48782880162000d1f565b925050606062000dd78782880162000d5a565b91505092959194509250565b600062000df08262000b95565b9050919050565b62000e028162000de3565b82525050565b600060208201905062000e1f600083018462000df7565b92915050565b62000e308162000d36565b82525050565b600060208201905062000e4d600083018462000e25565b92915050565b600062000e608262000be7565b9050919050565b62000e728162000e53565b82525050565b600060208201905062000e8f600083018462000e67565b92915050565b600069ffffffffffffffffffff82169050919050565b62000eb68162000e95565b811462000ec257600080fd5b50565b60008151905062000ed68162000eab565b92915050565b62000ee78162000cb9565b811462000ef357600080fd5b50565b60008151905062000f078162000edc565b92915050565b60008151905062000f1e8162000d40565b92915050565b600080600080600060a0868803121562000f435762000f4262000c3d565b5b600062000f538882890162000ec5565b955050602062000f668882890162000ef6565b945050604062000f798882890162000f0d565b935050606062000f8c8882890162000f0d565b925050608062000f9f8882890162000ec5565b9150509295509295909350565b7f4e487b7100000000000000000000000000000000000000000000000000000000600052601160045260246000fd5b600062000fe88262000d36565b915062000ff58362000d36565b9250828202620010058162000d36565b915082820484148315176200101f576200101e62000fac565b5b5092915050565b600082825260208201905092915050565b7f4c6f616e206578636565647320636f6c6c61746572616c2e0000000000000000600082015250565b60006200106f60188362001026565b91506200107c8262001037565b602082019050919050565b60006020820190508181036000830152620010a28162001060565b9050919050565b7f4d697373696e6720626f72726f77657200000000000000000000000000000000600082015250565b6000620010e160108362001026565b9150620010ee82620010a9565b602082019050919050565b600060208201905081810360008301526200111481620010d2565b9050919050565b7f56616c696420616d6f756e740000000000000000000000000000000000000000600082015250565b600062001153600c8362001026565b915062001160826200111b565b602082019050919050565b60006020820190508181036000830152620011868162001144565b9050919050565b60006200119a8262000d36565b9150620011a78362000d36565b9250828201905080821115620011c257620011c162000fac565b5b92915050565b7f4e487b7100000000000000000000000000000000000000000000000000000000600052601260045260246000fd5b6000620012048262000d36565b9150620012118362000d36565b925082620012245762001223620011c8565b5b828204905092915050565b600060e08201905062001246600083018a62000df7565b62001255602083018962000df7565b62001264604083018862000c0f565b62001273606083018762000e25565b62001282608083018662000c0f565b6200129160a083018562000e25565b620012a060c083018462000e25565b98975050505050505050565b6000620012b98262000be7565b9050919050565b620012cb81620012ac565b82525050565b620012dc8162000c42565b82525050565b6000606082019050620012f96000830186620012c0565b620013086020830185620012d1565b62001317604083018462000e25565b949350505050565b60008115159050919050565b62001336816200131f565b81146200134257600080fd5b50565b60008151905062001356816200132b565b92915050565b60006020828403121562001375576200137462000c3d565b5b6000620013858482850162001345565b91505092915050565b6000606082019050620013a56000830186620012d1565b620013b46020830185620012c0565b620013c3604083018462000e25565b949350505050565b6000602082019050620013e26000830184620012d1565b92915050565b600081519050919050565b60005b8381101562001413578082015181840152602081019050620013f6565b60008484015250505050565b6000601f19601f8301169050919050565b60006200143d82620013e8565b62001449818562001026565b93506200145b818560208601620013f3565b62001466816200141f565b840191505092915050565b600060408201905062001488600083018562000e25565b81810360208301526200149c818462001430565b9050939250505056fe60806040523480156200001157600080fd5b5060405162000b8238038062000b82833981810160405281019062000037919062000267565b866000806101000a81548173ffffffffffffffffffffffffffffffffffffffff021916908373ffffffffffffffffffffffffffffffffffffffff16021790555085600160006101000a81548173ffffffffffffffffffffffffffffffffffffffff021916908373ffffffffffffffffffffffffffffffffffffffff16021790555084600260006101000a81548173ffffffffffffffffffffffffffffffffffffffff021916908373ffffffffffffffffffffffffffffffffffffffff1602179055508360038190555082600460006101000a81548173ffffffffffffffffffffffffffffffffffffffff021916908373ffffffffffffffffffffffffffffffffffffffff16021790555081600581905550804262000156919062000349565b6006819055505050505050505062000384565b600080fd5b600073ffffffffffffffffffffffffffffffffffffffff82169050919050565b60006200019b826200016e565b9050919050565b620001ad816200018e565b8114620001b957600080fd5b50565b600081519050620001cd81620001a2565b92915050565b6000620001e0826200016e565b9050919050565b6000620001f482620001d3565b9050919050565b6200020681620001e7565b81146200021257600080fd5b50565b6000815190506200022681620001fb565b92915050565b6000819050919050565b62000241816200022c565b81146200024d57600080fd5b50565b600081519050620002618162000236565b92915050565b600080600080600080600060e0888a03121562000289576200028862000169565b5b6000620002998a828b01620001bc565b9750506020620002ac8a828b01620001bc565b9650506040620002bf8a828b0162000215565b9550506060620002d28a828b0162000250565b9450506080620002e58a828b0162000215565b93505060a0620002f88a828b0162000250565b92505060c06200030b8a828b0162000250565b91505092959891949750929550565b7f4e487b7100000000000000000000000000000000000000000000000000000000600052601160045260246000fd5b600062000356826200022c565b915062000363836200022c565b92508282019050808211156200037e576200037d6200031a565b5b92915050565b6107ee80620003946000396000f3fe6080604052600436106100865760003560e01c80637df1f1b9116100595780637df1f1b91461010257806392d09ceb1461012d578063b2016bd414610158578063bcead63e14610183578063be1abba5146101ae57610086565b806306d378171461008b578063472eb03d146100b6578063786716fe146100c057806379cc90c4146100eb575b600080fd5b34801561009757600080fd5b506100a06101d9565b6040516100ad9190610642565b60405180910390f35b6100be6101ff565b005b3480156100cc57600080fd5b506100d561042f565b6040516100e29190610676565b60405180910390f35b3480156100f757600080fd5b50610100610435565b005b34801561010e57600080fd5b50610117610547565b60405161012491906106b2565b60405180910390f35b34801561013957600080fd5b5061014261056d565b60405161014f9190610676565b60405180910390f35b34801561016457600080fd5b5061016d610573565b60405161017a9190610642565b60405180910390f35b34801561018f57600080fd5b50610198610599565b6040516101a591906106b2565b60405180910390f35b3480156101ba57600080fd5b506101c36105bd565b6040516101d09190610676565b60405180910390f35b600460009054906101000a900473ffffffffffffffffffffffffffffffffffffffff1681565b60065442111561020e57600080fd5b600260009054906101000a900473ffffffffffffffffffffffffffffffffffffffff1673ffffffffffffffffffffffffffffffffffffffff1663a9059cbb600160009054906101000a900473ffffffffffffffffffffffffffffffffffffffff166003546040518363ffffffff1660e01b815260040161028f9291906106ee565b6020604051808303816000875af11580156102ae573d6000803e3d6000fd5b505050506040513d601f19601f820116820180604052508101906102d29190610754565b6102db57600080fd5b600460009054906101000a900473ffffffffffffffffffffffffffffffffffffffff1673ffffffffffffffffffffffffffffffffffffffff166323b872dd600160009054906101000a900473ffffffffffffffffffffffffffffffffffffffff1660008054906101000a900473ffffffffffffffffffffffffffffffffffffffff166005546040518463ffffffff1660e01b815260040161037e93929190610781565b6020604051808303816000875af115801561039d573d6000803e3d6000fd5b505050506040513d601f19601f820116820180604052508101906103c19190610754565b6103ca57600080fd5b7f8bb0a19f3c449c5f333f46e05a21a731e09b6f6bd145ee30e45d3e74e296990b60405160405180910390a160008054906101000a900473ffffffffffffffffffffffffffffffffffffffff1673ffffffffffffffffffffffffffffffffffffffff16ff5b60065481565b600654421161044357600080fd5b600260009054906101000a900473ffffffffffffffffffffffffffffffffffffffff1673ffffffffffffffffffffffffffffffffffffffff1663a9059cbb60008054906101000a900473ffffffffffffffffffffffffffffffffffffffff166003546040518363ffffffff1660e01b81526004016104c29291906106ee565b6020604051808303816000875af11580156104e1573d6000803e3d6000fd5b505050506040513d601f19601f820116820180604052508101906105059190610754565b61050e57600080fd5b60008054906101000a900473ffffffffffffffffffffffffffffffffffffffff1673ffffffffffffffffffffffffffffffffffffffff16ff5b600160009054906101000a900473ffffffffffffffffffffffffffffffffffffffff1681565b60035481565b600260009054906101000a900473ffffffffffffffffffffffffffffffffffffffff1681565b60008054906101000a900473ffffffffffffffffffffffffffffffffffffffff1681565b60055481565b600073ffffffffffffffffffffffffffffffffffffffff82169050919050565b6000819050919050565b60006106086106036105fe846105c3565b6105e3565b6105c3565b9050919050565b600061061a826105ed565b9050919050565b600061062c8261060f565b9050919050565b61063c81610621565b82525050565b60006020820190506106576000830184610633565b92915050565b6000819050919050565b6106708161065d565b82525050565b600060208201905061068b6000830184610667565b92915050565b600061069c826105c3565b9050919050565b6106ac81610691565b82525050565b60006020820190506106c760008301846106a3565b92915050565b60006106d88261060f565b9050919050565b6106e8816106cd565b82525050565b600060408201905061070360008301856106df565b6107106020830184610667565b9392505050565b600080fd5b60008115159050919050565b6107318161071c565b811461073c57600080fd5b50565b60008151905061074e81610728565b92915050565b60006020828403121561076a57610769610717565b5b60006107788482850161073f565b91505092915050565b600060608201905061079660008301866106df565b6107a360208301856106df565b6107b06040830184610667565b94935050505056fea26469706673582212203091e3bf87d86ea3ae6d3bafa4ea703076c958a2502fcadb071429df5f00e2e064736f6c63430008110033a2646970667358221220aac3fd65c3272d253f64621511d62398461298c02ca584bead6a4d0171885a2564736f6c63430008110033",
  "linkReferences": {},
  "deployedLinkReferences": {}
}