{
  "_format": "hh-sol-artifact-1",
  "contractName": "Loan",
  "sourceName": "contracts/Loan.sol",
  "abi": [
    {
      "inputs": [
        {
          "internalType": "address payable",
          "name": "_lender",
          "type": "address"
        },
        {
          "internalType": "address payable",
          "name": "_borrower",
          "type": "address"
        },
        {
          "internalType": "contract IERC20",
          "name": "_collateralToken",
          "type": "address"
        },
        {
          "internalType": "uint256",
          "name": "_collateralAmount",
          "type": "uint256"
        },
        {
          "internalType": "contract IERC20",
          "name": "_loanToken",
          "type": "address"
        },
        {
          "internalType": "uint256",
          "name": "_payoffAmount",
          "type": "uint256"
        },
        {
          "internalType": "uint256",
          "name": "loanDuration",
          "type": "uint256"
        }
      ],
      "stateMutability": "nonpayable",
      "type": "constructor"
    },
    {
      "anonymous": false,
      "inputs": [],
      "name": "LoanPaid",
      "type": "event"
    },
    {
      "inputs": [],
      "name": "borrower",
      "outputs": [
        {
          "internalType": "address payable",
          "name": "",
          "type": "address"
        }
      ],
      "stateMutability": "view",
      "type": "function"
    },
    {
      "inputs": [],
      "name": "collateralAmount",
      "outputs": [
        {
          "internalType": "uint256",
          "name": "",
          "type": "uint256"
        }
      ],
      "stateMutability": "view",
      "type": "function"
    },
    {
      "inputs": [],
      "name": "collateralToken",
      "outputs": [
        {
          "internalType": "contract IERC20",
          "name": "",
          "type": "address"
        }
      ],
      "stateMutability": "view",
      "type": "function"
    },
    {
      "inputs": [],
      "name": "dueDate",
      "outputs": [
        {
          "internalType": "uint256",
          "name": "",
          "type": "uint256"
        }
      ],
      "stateMutability": "view",
      "type": "function"
    },
    {
      "inputs": [],
      "name": "lender",
      "outputs": [
        {
          "internalType": "address payable",
          "name": "",
          "type": "address"
        }
      ],
      "stateMutability": "view",
      "type": "function"
    },
    {
      "inputs": [],
      "name": "loanToken",
      "outputs": [
        {
          "internalType": "contract IERC20",
          "name": "",
          "type": "address"
        }
      ],
      "stateMutability": "view",
      "type": "function"
    },
    {
      "inputs": [],
      "name": "payLoan",
      "outputs": [],
      "stateMutability": "payable",
      "type": "function"
    },
    {
      "inputs": [],
      "name": "payoffAmount",
      "outputs": [
        {
          "internalType": "uint256",
          "name": "",
          "type": "uint256"
        }
      ],
      "stateMutability": "view",
      "type": "function"
    },
    {
      "inputs": [],
      "name": "repossess",
      "outputs": [],
      "stateMutability": "nonpayable",
      "type": "function"
    }
  ],
  "bytecode": "0x60806040523480156200001157600080fd5b5060405162000b8238038062000b82833981810160405281019062000037919062000267565b866000806101000a81548173ffffffffffffffffffffffffffffffffffffffff021916908373ffffffffffffffffffffffffffffffffffffffff16021790555085600160006101000a81548173ffffffffffffffffffffffffffffffffffffffff021916908373ffffffffffffffffffffffffffffffffffffffff16021790555084600260006101000a81548173ffffffffffffffffffffffffffffffffffffffff021916908373ffffffffffffffffffffffffffffffffffffffff1602179055508360038190555082600460006101000a81548173ffffffffffffffffffffffffffffffffffffffff021916908373ffffffffffffffffffffffffffffffffffffffff16021790555081600581905550804262000156919062000349565b6006819055505050505050505062000384565b600080fd5b600073ffffffffffffffffffffffffffffffffffffffff82169050919050565b60006200019b826200016e565b9050919050565b620001ad816200018e565b8114620001b957600080fd5b50565b600081519050620001cd81620001a2565b92915050565b6000620001e0826200016e565b9050919050565b6000620001f482620001d3565b9050919050565b6200020681620001e7565b81146200021257600080fd5b50565b6000815190506200022681620001fb565b92915050565b6000819050919050565b62000241816200022c565b81146200024d57600080fd5b50565b600081519050620002618162000236565b92915050565b600080600080600080600060e0888a03121562000289576200028862000169565b5b6000620002998a828b01620001bc565b9750506020620002ac8a828b01620001bc565b9650506040620002bf8a828b0162000215565b9550506060620002d28a828b0162000250565b9450506080620002e58a828b0162000215565b93505060a0620002f88a828b0162000250565b92505060c06200030b8a828b0162000250565b91505092959891949750929550565b7f4e487b7100000000000000000000000000000000000000000000000000000000600052601160045260246000fd5b600062000356826200022c565b915062000363836200022c565b92508282019050808211156200037e576200037d6200031a565b5b92915050565b6107ee80620003946000396000f3fe6080604052600436106100865760003560e01c80637df1f1b9116100595780637df1f1b91461010257806392d09ceb1461012d578063b2016bd414610158578063bcead63e14610183578063be1abba5146101ae57610086565b806306d378171461008b578063472eb03d146100b6578063786716fe146100c057806379cc90c4146100eb575b600080fd5b34801561009757600080fd5b506100a06101d9565b6040516100ad9190610642565b60405180910390f35b6100be6101ff565b005b3480156100cc57600080fd5b506100d561042f565b6040516100e29190610676565b60405180910390f35b3480156100f757600080fd5b50610100610435565b005b34801561010e57600080fd5b50610117610547565b60405161012491906106b2565b60405180910390f35b34801561013957600080fd5b5061014261056d565b60405161014f9190610676565b60405180910390f35b34801561016457600080fd5b5061016d610573565b60405161017a9190610642565b60405180910390f35b34801561018f57600080fd5b50610198610599565b6040516101a591906106b2565b60405180910390f35b3480156101ba57600080fd5b506101c36105bd565b6040516101d09190610676565b60405180910390f35b600460009054906101000a900473ffffffffffffffffffffffffffffffffffffffff1681565b60065442111561020e57600080fd5b600260009054906101000a900473ffffffffffffffffffffffffffffffffffffffff1673ffffffffffffffffffffffffffffffffffffffff1663a9059cbb600160009054906101000a900473ffffffffffffffffffffffffffffffffffffffff166003546040518363ffffffff1660e01b815260040161028f9291906106ee565b6020604051808303816000875af11580156102ae573d6000803e3d6000fd5b505050506040513d601f19601f820116820180604052508101906102d29190610754565b6102db57600080fd5b600460009054906101000a900473ffffffffffffffffffffffffffffffffffffffff1673ffffffffffffffffffffffffffffffffffffffff166323b872dd600160009054906101000a900473ffffffffffffffffffffffffffffffffffffffff1660008054906101000a900473ffffffffffffffffffffffffffffffffffffffff166005546040518463ffffffff1660e01b815260040161037e93929190610781565b6020604051808303816000875af115801561039d573d6000803e3d6000fd5b505050506040513d601f19601f820116820180604052508101906103c19190610754565b6103ca57600080fd5b7f8bb0a19f3c449c5f333f46e05a21a731e09b6f6bd145ee30e45d3e74e296990b60405160405180910390a160008054906101000a900473ffffffffffffffffffffffffffffffffffffffff1673ffffffffffffffffffffffffffffffffffffffff16ff5b60065481565b600654421161044357600080fd5b600260009054906101000a900473ffffffffffffffffffffffffffffffffffffffff1673ffffffffffffffffffffffffffffffffffffffff1663a9059cbb60008054906101000a900473ffffffffffffffffffffffffffffffffffffffff166003546040518363ffffffff1660e01b81526004016104c29291906106ee565b6020604051808303816000875af11580156104e1573d6000803e3d6000fd5b505050506040513d601f19601f820116820180604052508101906105059190610754565b61050e57600080fd5b60008054906101000a900473ffffffffffffffffffffffffffffffffffffffff1673ffffffffffffffffffffffffffffffffffffffff16ff5b600160009054906101000a900473ffffffffffffffffffffffffffffffffffffffff1681565b60035481565b600260009054906101000a900473ffffffffffffffffffffffffffffffffffffffff1681565b60008054906101000a900473ffffffffffffffffffffffffffffffffffffffff1681565b60055481565b600073ffffffffffffffffffffffffffffffffffffffff82169050919050565b6000819050919050565b60006106086106036105fe846105c3565b6105e3565b6105c3565b9050919050565b600061061a826105ed565b9050919050565b600061062c8261060f565b9050919050565b61063c81610621565b82525050565b60006020820190506106576000830184610633565b92915050565b6000819050919050565b6106708161065d565b82525050565b600060208201905061068b6000830184610667565b92915050565b600061069c826105c3565b9050919050565b6106ac81610691565b82525050565b60006020820190506106c760008301846106a3565b92915050565b60006106d88261060f565b9050919050565b6106e8816106cd565b82525050565b600060408201905061070360008301856106df565b6107106020830184610667565b9392505050565b600080fd5b60008115159050919050565b6107318161071c565b811461073c57600080fd5b50565b60008151905061074e81610728565b92915050565b60006020828403121561076a57610769610717565b5b60006107788482850161073f565b91505092915050565b600060608201905061079660008301866106df565b6107a360208301856106df565b6107b06040830184610667565b94935050505056fea26469706673582212203091e3bf87d86ea3ae6d3bafa4ea703076c958a2502fcadb071429df5f00e2e064736f6c63430008110033",
  "linkReferences": {},
  "deployedLinkReferences": {}
}